:100000000C9452010C9471180C944A180C942318F7
:100010000C94FC170C947A010C947A010C94D5176B
:100020000C947A010C947A010C9492140C9401159E
:100030000C947A010C947A010C947A010C947A0154
:100040000C947A010C947A010C947A010C947A0144
:100050000C947A010C947A010C947A010C948B170D
:100060000C947A010C9459170C9433170C947A0160
:100070000C947A010C947A010C947A010C947A0114
:100080000C947A010C947A010C947A010C947A0104
:100090000C947A010C947A010C947A010C947A01F4
:1000A0000C947A010C947A010C947A0100407A1035
:1000B000F35A00A0724E18090010A5D4E80000E819
:1000C0007648170000E40B54020000CA9A3B000077
:1000D00000E1F505000080969800000040420F0006
:1000E0000000A08601000000102700000000E803C7
:1000F000000000006400000000000A000000000092
:100100000100000000002C76D888DC674F0823DF50
:10011000C1DFAE59E1B1B796E5E3E453C63AE65123
:10012000997696E8E6C28426EB898C9B62ED407C4A
:100130006FFCEFBC9C9F40F2BAA56FA5F490055AE6
:100140002AF75C936B6CF9676DC11BFCE0E40D470B
:10015000FEF520E6B500D0ED902E0300943577052E
:100160000080841E080000204E0A000000C80C33E6
:100170003333330F986E12831141EF8D2114893B75
:10018000E65516CFFEE6DB18D1844B381BF77C1DF5
:10019000901DA4BBE424203284725E228100C9F148
:1001A00024ECA1E53D2700000000240027002A00E0
:1001B0002D00300072756E2D6272696467650A00E9
:1001C0000A000A00080B00020202010009040000F4
:1001D00001020200000524001001052401010104B0
:1001E00024020605240600010705810310004009CA
:1001F000040100020A000000070502024000000797
:100200000583024000000403090412010002EF020A
:1002100001404123418000010102030141726475E4
:10022000696E6F204C4C430041726475696E6F209B
:1002300059756E0000000000250028002B002E00DC
:10024000310004040404040304050202020204034E
:100250000202020206060606060604040202020460
:1002600004040802011040804010204080408008B3
:100270000204018040201002011080102040402024
:100280000000000200090F0000030401000C000040
:10029000000000000000000000000000000000005E
:1002A0009818AB1D11241FBECFEFDAE0DEBFCDBF23
:1002B00023E0A2EDB1E001C01D92A23CB207E1F73C
:1002C00011E0A0E0B1E0E8EDF8E402C005900D9285
:1002D000A23DB107D9F711E0C1E5D1E004C02197F3
:1002E000FE010E944D22C035D107C9F70E94821934
:1002F0000C945F240C940000AF92BF92CF92DF92D7
:10030000EF92FF920F931F93CF93DF9300D0CDB75F
:10031000DEB75C01D12CC12CCA14DB04A0F04091E3
:100320003703509138036091390370913A03E0919B
:100330005203F091530380914E0390914F0309951E
:1003400090E080E030C0E0915403F091550380913B
:1003500050039091510309957B018C011E141F04D9
:1003600010061106F4F41A8219826091400370910C
:1003700041036C0D7D1DE0914C03F0914D039E01F6
:100380002F5F3F4FA5014C195D0980914803909163
:1003900049030995009739F489819A81C80ED91EBD
:1003A000BBCF8CEF9FEF0F900F90DF91CF911F91FC
:1003B0000F91FF90EF90DF90CF90BF90AF90089596
:1003C0008F929F92AF92BF92CF92DF92EF92FF9265
:1003D0000F931F93CF93DF9300D0CDB7DEB79C016F
:1003E000260F371F40913E0350913F03421753079A
:1003F00008F44CC05B014C01D12CC12CCA14DB04A5
:1004000018F090E080E033C0E0915403F091550380
:10041000809150039091510309957B018C011E142A
:100420001F04100611060CF51A821982609142030E
:1004300070914303C4018C0D9D1D680F791FE091DD
:100440004A03F0914B039E012F5F3F4FA5014C19CA
:100450005D0980914803909149030995009739F40B
:1004600089819A81C80ED91EC9CF8CEF9FEF0F905A
:100470000F90DF91CF911F910F91FF90EF90DF9040
:10048000CF90BF90AF909F908F9008958FEF9FEF88
:10049000EECF109256038091190390911A03DC015C
:1004A000ED91FC910488F589E02D09948091190360
:1004B00090911A03009711F480E00895DC01ED910A
:1004C000FC910688F789E02D09958130A9F7809184
:1004D00056030895EDE8F2E02491EEE6F2E034915F
:1004E000EFE4F2E09491992309F430C02223E9F07B
:1004F00021502F30D0F4E22FF0E0EF57FD4F0C9455
:100500004D22AF02B3029002A702AB029502950200
:100510009502B602BC02C002C402CA029502CE0213
:10052000209180002F7720938000E92FF0E0EE0FDC
:10053000FF1FEC5CFD4FA591B4919FB7F894EC912F
:10054000811132C030953E233C939FBF0895209186
:1005500080002F7DE8CF20918000277FE4CF24B555
:100560002F7724BDE2CF24B52F7DFBCF20919000C3
:100570002F7720939000D9CF209190002F7DF9CF35
:1005800020919000277FF5CF2091C0002F772093F6
:10059000C000CBCF2091C0002F7DF9CF2091C200A9
:1005A000277F2093C200C1CF3E2BCECFFC0180918C
:1005B0000A02882311F13FB7F89482E08093E900A2
:1005C0002091F200822F90E01816190614F481E0B1
:1005D00090E0882339F0289844E64093090240913E
:1005E000F1004083222339F02091F200211103C051
:1005F0002BE62093E8003FBF08958FEF9FEF08950B
:100600002FB7F89483E08093E9009091E800892F58
:10061000807295FF04C09091F20080E4891B2FBF87
:1006200008958091010281110DC082E08093FD0147
:1006300084E08093FE01109200021092FF0181E09D
:10064000809301028DEF91E00895CF93DF931F9285
:10065000CDB7DEB76983DC01ED91FC910280F381B7
:10066000E02D41E050E0BE016F5F7F4F09950F9094
:10067000DF91CF91089583E08093E9008091F200AB
:10068000882319F08AE38093E80008950E9400030C
:1006900090E00895CF93DF931F92CDB7DEB7FC01B2
:1006A0008485958597FD08C02FEF3FEF3587248718
:1006B0000F90DF91CF910895CE0101960E94D6024E
:1006C000019719F4898190E0F3CF8FEF9FEFF0CF7E
:1006D0000F931F93CF93DF931F92CDB7DEB78C019B
:1006E000FC018485958597FF0BC0CE0101960E9481
:1006F000D602019771F4898190E0F801958784878B
:10070000F801848595850F90DF91CF911F910F910E
:1007100008958FEF9FEFF1CFFC018485958597FDBC
:100720000BC09FB7F89482E08093E9008091F200BB
:100730009FBF90E0019608959FB7F89482E0809360
:10074000E9008091F2009FBF90E008954091F70189
:100750005091F8012091F5013091F60142175307AD
:10076000B4F49091E8009570E1F39091E80092FD67
:1007700019C08093F1008091F7019091F8010196E2
:100780008F739927892B19F48EEF8093E80080915D
:10079000F7019091F80101969093F8018093F70189
:1007A00081E0089580E00895EF92FF920F931F93E8
:1007B000CF93DF93F82E192FE62E042F81E0860FBA
:1007C000880F0E94A60383E00E94A603CF2DD12F9D
:1007D000EC0EFD2EF11CCE15DF05B9F007FF13C09E
:1007E000FE0184910E94A603182F80E00E94A603B8
:1007F000812321968111EFCFDF91CF911F910F912E
:10080000FF90EF9008958881EDCF81E0F5CFDF92E2
:10081000EF92FF920F931F93CF93DF93D82E8A010D
:10082000EB017B01E40EF51ECE15DF0559F0D7FE76
:1008300012C0FE0184910E94A60321968111F4CF7B
:100840000FEF1FEFC801DF91CF911F910F91FF9024
:10085000EF90DF9008958881EECF0F931F93CF9391
:10086000DF931F92CDB7DEB782E0898342E450E088
:1008700064EC71E080E80E9407040E941103DC012F
:1008800012960D911C910115110589F0D801ED9179
:10089000FC910280F381E02DBE016F5F7F4FC801A4
:1008A000099597FD04C0F80100851185ECCF898179
:1008B0000F90DF91CF911F910F910895615030F00B
:1008C0002091F100FC0120830196F8CF289884E65E
:1008D000809309020895CF93DF93E901DC018D91A4
:1008E0009C91DC01ED91FC910280F381E02D099552
:1008F00099838883892B29F090E080E0DF91CF9164
:1009000008958AEF9FEFFACF0895EF92FF920F9329
:100910001F93CF93DF938C017B01D0E0C0E0F70100
:10092000EC0FFD1F6491662361F0D801ED91FC91FD
:100930000190F081E02DC8010995892B11F02196D5
:10094000EECFCE01DF91CF911F910F91FF90EF90ED
:100950000895AF92BF92CF92DF92EF92FF920F93E2
:100960001F93CF93DF936C017B018B01040F151F45
:10097000EB015E01AE18BF08C017D10759F06991AD
:10098000D601ED91FC910190F081E02DC601099511
:10099000892B79F7C501DF91CF911F910F91FF90BE
:1009A000EF90DF90CF90BF90AF900895FC01538DF2
:1009B000448D252F30E0842F90E0821B930B541739
:1009C00010F0CF96089501970895FC01918D828DC6
:1009D000981761F0A28DAE0FBF2FB11D5D968C915F
:1009E000928D9F5F9F73928F90E008958FEF9FEF9E
:1009F0000895FC01918D828D981731F0828DE80F5A
:100A0000F11D858D90E008958FEF9FEF0895FC0113
:100A1000918D228D892F90E0805C9F4F821B9109E0
:100A20008F739927089587E692E00E94070521E0D9
:100A3000892B09F420E0822F089580E090E0892B33
:100A400029F00E94130581110C9400000895FC0107
:100A5000A48DA80FB92FB11DA35ABF4F2C91848D1F
:100A600090E001968F739927848FA689B7892C937C
:100A7000A089B1898C9182748C93938D848D981305
:100A800006C00288F389E02D80818F7D80830895E0
:100A9000EF92FF920F931F93CF93DF93EC0181E0CE
:100AA000888F9B8D8C8D981319C0E889F989808176
:100AB00085FF14C09FB7F894EE89FF896083E889A9
:100AC000F9898081827480839FBF81E090E0DF910B
:100AD000CF911F910F91FF90EF900895F62E0B8DFF
:100AE00010E00F5F1F4F0F731127E02E8C8D8E11BA
:100AF0000CC00FB607FCFACFE889F989808185FF21
:100B0000F5CFCE010E942705F1CFEB8DEC0FFD2F25
:100B1000F11DE35AFF4FF0829FB7F8940B8FEA89DB
:100B2000FB8980818062CFCFCF93DF93EC01888DEA
:100B30008823B9F0AA89BB89E889F9898C9185FD58
:100B400003C0808186FD0DC00FB607FCF7CF8C91E6
:100B500085FFF2CF808185FFEDCFCE010E94270572
:100B6000E9CFDF91CF9108953FB7F8948091D901F3
:100B70009091DA01A091DB01B091DC0126B5A89B30
:100B800005C02F3F19F00196A11DB11D3FBFBA2F1F
:100B9000A92F982F8827BC01CD01620F711D811DDF
:100BA000911D42E0660F771F881F991F4A95D1F764
:100BB00008958F929F92AF92BF92CF92DF92EF9261
:100BC000FF924B015C010E94B4056B017C010E9405
:100BD000B4056C197D098E099F09683E7340810533
:100BE0009105A8F321E0821A9108A108B10888EEC6
:100BF000C80E83E0D81EE11CF11C81149104A104ED
:100C0000B10429F7FF90EF90DF90CF90BF90AF90A5
:100C10009F908F9008958F929F92AF92BF92CF92A4
:100C2000DF92EF92FF920F931F93CF93DF936C01AC
:100C30007B018A0180911501882309F45CC08091B1
:100C40000A02882309F457C08091FC0180FF05C087
:100C50008091E00082608093E000E801B12C8AEF8F
:100C6000A82E93E0892E2AE3922E209711F4BB2020
:100C7000D9F10E94000381110AC0AA94AA20D9F1D7
:100C800061E070E080E090E00E94D905EECF8C1723
:100C90001D0611F00CF08C2F9FB7F8948092E9009C
:100CA0002091E80025FD02C09FBFDFCF282F30E054
:100CB000C21BD30BF701815020F041914093F1000A
:100CC000FACFE20EF31EBB2021F09092E800B12C87
:100CD000EBCF8091E80085FDE7CF9092E800BB2440
:100CE000B394209709F3F3CF5D9884E68093FB01DA
:100CF000101611063CF081E090E0F60193838283A8
:100D000010E000E0C801DF91CF911F910F91FF909B
:100D1000EF90DF90CF90BF90AF909F908F9008950D
:100D20002FB7F8946091D5017091D6018091D701C9
:100D30009091D8012FBF0895CF92DF92EF92FF924A
:100D4000C0900803D0900903E0900A03F0900B03D1
:100D5000C0920403D0920503E0920603F0920703C9
:100D60000E949006609308037093090380930A031E
:100D700090930B032091D2013091D301F901EE0F32
:100D8000FF1FEE0FFF1FE352FE4FAB01BC014C19DA
:100D90005D096E097F094083518362837383C901B2
:100DA00001968530910594F49093D3018093D201FC
:100DB0008091F1019091F20101969093F20180935C
:100DC000F101FF90EF90DF90CF9008951092D30142
:100DD0001092D201EDCFCF92DF92EF92FF92CF939C
:100DE000DF93EC016A017B01EC81FD81309781F09A
:100DF0000995C60ED71EE81EF91EC882D982EA825E
:100E0000FB82DF91CF91FF90EF90DF90CF9008951C
:100E10000E949006EECFCF92DF92EF92FF92DC011C
:100E20001496ED91FC911597CD90DD90ED90FC908E
:100E3000309771F00995A7019601261B370B480BD7
:100E4000590BCA01B901FF90EF90DF90CF90089540
:100E50000E949006F0CF08950F931F93CF93DF93D6
:100E6000EC01B0E0A0E0E881F9818D010F5F1F4F38
:100E7000CB018E1B9F0B8017910758F1822F8F7724
:100E800097E056954795379527959A95D1F721156F
:100E900031054105510509F08068EA0FFB1F808389
:100EA000211531054105510569F488819981800F2B
:100EB000911F9983888390E080E0DF91CF911F910B
:100EC0000F910895D8010430110569F68EEF9FEF58
:100ED000F4CF8FEF9FEFF1CF4F925F926F927F929F
:100EE0009F92AF92BF92CF92DF92EF92FF920F93B9
:100EF0001F93CF93DF936C018A01DA011D921D923B
:100F00001D921C921397DC01ED91FC917B01EE1A6E
:100F1000FF0A5F01D0E0C0E0412C512C3201439424
:100F20002196EC16FD06E0F1C530D105E1F1D501C1
:100F30009D905D01A92DAF77B0E0A30192010E94C1
:100F4000FB20D8012D913D914D915C911397260F77
:100F5000371F481F591F2D933D934D935C93139753
:100F600087E0440C551C661C771C8A95D1F797FCCA
:100F7000D7CFEC0FFD1FD601ED93FC9390E080E0FE
:100F8000DF91CF911F910F91FF90EF90DF90CF9065
:100F9000BF90AF909F907F906F905F904F9008951B
:100FA0008FEF9FEFEDCF8EEF9FEFEACFEF92FF92A3
:100FB0000F931F93CF93DF9300D000D000D0CDB715
:100FC000DEB7D9017C01E60EF71E8E159F0589F16B
:100FD000FC013191FE83ED83832F807F90E064E0FC
:100FE000959587956A95E1F784179507E1F533FBA9
:100FF000332730F93C93AE014F5F5F4FB701CE010D
:1010000005960E946C07009709F549815A816B810A
:101010007C81423051056105710541F5ED81FE810C
:10102000EE1AFF0A22E0E216F10430F4F801118210
:1010300010828FEF9FEF0AC0208130E0322F2227ED
:101040004181240F311DF8013183208326960FB68C
:10105000F894DEBF0FBECDBFDF91CF911F910F91EE
:10106000FF90EF90089587EF9FEFF0CF88EF9FEF0D
:10107000EDCFFC01A081B1816A1B7B0B6230710551
:1010800068F05C93A081B18111964C93808191812D
:1010900002969183808390E080E008958FEF9FEF28
:1010A0000895AF92BF92CF92DF92EF92FF920F938B
:1010B0001F93CF93DF9300D0CDB7DEB77C01E60E50
:1010C000F71EE1E0F0E02630310511F0F0E0E0E05D
:1010D000EE0FFF1F74E0220F331F7A95E1F7E22B2A
:1010E000E816F90669F16A015C01DC01ED93BA8347
:1010F000A98322E030E040E050E0B701CE01019644
:101100000E942C07009779F4A801B701CE0101963F
:101110000E943908009739F429813A812A193B093C
:10112000F601318320830F900F90DF91CF911F91B3
:101130000F91FF90EF90DF90CF90BF90AF90089508
:101140008FEF9FEFF0CF2F923F924F925F926F926F
:101150007F928F929F92AF92BF92CF92DF92EF9247
:10116000FF920F931F93CF93DF93CDB7DEB76597B1
:101170000FB6F894DEBF0FBECDBF1C013B012A01A4
:101180001F861E86D1011D921C9261E070E090E0E6
:1011900080E00E94E0018C3FBFEF9B0709F47FC015
:1011A000009709F04CC0E0914203F0914303D10154
:1011B00011961C921E928081807F90E074E095953C
:1011C00087957A95E1F78D939C938930910579F015
:1011D0004CF40297069758F0F1011182108287EFC4
:1011E0009FEF2DC08B30910511F00D97A9F7198253
:1011F0001A821B821C8210E000E04801FFEF8F1A68
:101200009F0A61E070E0C4010E94E0010097B9F418
:1012100060914203709143036F5F7F4F79876887C6
:10122000680D791DAE014F5F5F4FCE0108960E9499
:101230006C078E3F2FEF9207D9F489EF9FEF6596E9
:101240000FB6F894DEBF0FBECDBFDF91CF911F91D7
:101250000F91FF90EF90DF90CF90BF90AF909F9055
:101260008F907F906F905F904F903F902F90089558
:10127000009781F569817A818B819C816115710567
:101280008105910589F589819A8101964E855F8551
:10129000840F951FDC01A80DB91DBF87AE87F10132
:1012A00080819181009709F466C18530910509F428
:1012B00010C108F5039741F14114510409F453C1D9
:1012C000D1018D919C914816590609F057C190E0C3
:1012D00080E0B5CF19821A821B821C8284018F3F65
:1012E000980709F48ACFABCFC80102960E94E001AB
:1012F000009749F2A4CF8630910509F416C10D97E5
:10130000D9F610923B03D8CF00913E0310913F03D2
:10131000E0914203F0914303FD87EC870E0F1F1FFE
:10132000E017F10709F424C18191FD87EC87982F1C
:10133000907F903309F053CF982F91709B838670E4
:1013400090E09595879588248394912C813039F08D
:10135000912C812C823019F452E0852E912CAE0113
:10136000485F5F4FB801CE010C960E946C07009752
:1013700009F065CFC884D984EA84FB84F2E0CF16F3
:10138000D104E104F10408F4A1C0EC85FD850E1B35
:101390001F0B012E000C220B330B0C151D052E0507
:1013A0003F0508F4E5C022E0C216D10408F4E0C00D
:1013B000808190E0982F88272181820F911D9F01C5
:1013C0002E5F3F4F3D872C87009709F06BC01B8A2B
:1013D0001A8AEC0DFD1D998B888B8114910409F4F8
:1013E0006FC0AC85BD85CF018A1B9B0B029708F4AB
:1013F000BFC08C9190E0982F882711962C9111975F
:10140000AC01420F511D5D8B4C8B1296BD87AC8792
:101410008C859D85E81BF90BFF83EE83EF2B09F08C
:1014200052C01D821C82E0914403F0914503309725
:10143000A1F06091460370914703A82C9A8289829B
:10144000BA80CB80DC80ED80FE800F8128893989CD
:101450004A895B8985E393E009958114910409F435
:101460002BCF24E030E08A94892811F025E030E089
:1014700060913C0370913D030C891D89AE01485F6A
:101480005F4F80914003909141030E945108009763
:1014900009F0D5CE888599850E947C01009709F4D2
:1014A0000BCFCDCEA601425051094817590708F479
:1014B0005FC03B8B2A8B280F391F3D872C8789CF34
:1014C0001D8A1C8AA5CF9D838C83ADCF88EF9FEFAB
:1014D000B6CE60913E0370913F038E01085F1F4FAF
:1014E0009E01245F3F4F45E050E080914203909180
:1014F00043030E94D607009709F0A1CE08851985FD
:1015000060913C0370913D0326E030E0AE014F5FF7
:101510005F4F80914003909141030E9451080097D2
:1015200009F08DCE89819A81B7CF60913E03709189
:101530003F038E01085F1F4F9E01245F3F4F46E02F
:1015400050E080914203909143030E94D607009798
:1015500009F075CE0885198560913C0370913D03B3
:1015600027E030E0D3CF6114710409F0A9CEAFCEEB
:101570008FEF9FEF64CE41145104A9F3E09154031F
:10158000F0915503809150039091510309951616DF
:101590001706180619060CF09ACE6114710409F4A6
:1015A000F1CDEE85FF85E615F70508F4EBCD8FCE7E
:1015B0004F925F926F927F928F929F92AF92BF9263
:1015C000CF92DF92EF92FF920F931F93CF93DF930F
:1015D0006B015901FC01C081D181EC82FD820E8337
:1015E0001F837B01E40EF51E8B0148018C189D08BA
:1015F0000E151F0511F10E949006688779878A876A
:101600009B87E881F9810284F385E02DCE0109955D
:1016100097FF2DC00E949006488459846A847B8479
:1016200064197509860997094C805D806E807F80FA
:10163000641575058605970520F3F5019182808272
:1016400090E080E0892811F48BEF9FEFDF91CF913C
:101650001F910F91FF90EF90DF90CF90BF90AF90D0
:101660009F908F907F906F905F904F900895F801BA
:1016700081938F01BACF0895FB012785FC0127874D
:10168000FB012685FC0126870895FC0187850895C6
:1016900090E080E00895CF93DF93EC018D819E81EF
:1016A000DC01ED91FC910084F185E02D099518167F
:1016B000190654F48D819E81DC01ED91FC91028428
:1016C000F385E02D0995EACFDF91CF9108958F92B0
:1016D0009F92AF92BF92CF92DF92EF92FF92CF9301
:1016E000DF93EC016B010E9490064B015C01F12C31
:1016F000E12C8D819E81DC01ED91FC910284F385CA
:10170000E02D099597FF0DC00E9490066819790990
:101710008A099B096C157D058E059F0550F38FEF97
:101720009FEFDF91CF91FF90EF90DF90CF90BF9030
:10173000AF909F908F900895FC01238134812627DC
:10174000022E2295207F2025032E322F22952F70E6
:101750000226269532272327220F220F220F20252B
:101760003483238308952F923F924F925F926F921A
:101770007F928F929F92AF92BF92CF92DF92EF9221
:10178000FF920F931F93CF93DF93CDB7DEB72A97C6
:101790000FB6F894DEBF0FBECDBF9A8789875B0175
:1017A000290137011A01200E311E3A82198288243C
:1017B0008A94982C9A01260F371F3E832D83C801E7
:1017C000840D951D98878F83A985BA8518968C916D
:1017D000B981B81708F040C1E985FA8594828382FF
:1017E00085819681DC01ED91FC910190F081E02DE5
:1017F0006FEF09956FEF89859A850E949C0BE985AB
:10180000FA8585819681DC01ED91FC910190F08152
:10181000E02DA985BA856C910995E985FA856081E5
:10182000CF010E949C0BA985BA8515968D919C913C
:10183000DC01ED91FC910190F081E02D6A81099528
:101840006A8189859A850E949C0BE985FA85858144
:101850009681DC01ED91FC910190F081E02D622DEB
:101860000995622D89859A850E949C0B8501E985E1
:10187000FA8585819681D8016D918D01DC01ED910C
:10188000FC910190F081E02D0995F801319760817C
:1018900089859A850E949C0BED81FE810E171F079A
:1018A00031F78201A985BA8515968D919C91DC014D
:1018B000ED91FC910190F081E02D2F81388520176A
:1018C000310761F0D8016D918D010995F8013197CB
:1018D000608189859A850E949C0BE4CFA985BA8591
:1018E00014966C910995E985FA8585819681DC01CC
:1018F000ED91FC910190F081E02DA985BA851396B8
:101900006C91099568EC70E089859A850E94670B57
:101910008F3F910509F092C0E985FA859482838210
:101920006FEFCF010E949C0B65E070E089859A857E
:101930000E94670BA985BA856C916817190609F092
:101940007DC0CD010E949C0B6AE070E089859A857C
:101950000E94670B7C0197FD71C0682F89859A856D
:101960000E949C0B6AE070E089859A850E94670B53
:101970008C0197FD63C0682F89859A850E949C0B16
:10198000EC821B82EB81FC810E0F1F1FF12CE12CDE
:1019900065E070E089859A850E151F05A1F0EC14AD
:1019A000FD0489F00E94670B97FD09C0F301EE0D5D
:1019B000FF1D8083682F89859A850E949C0BFFEF0D
:1019C000EF1AFF0AE5CF0E94670B7C0197FD36C036
:1019D00065E070E089859A850E94670B97FD2EC0AF
:1019E000FE2CEE248E0D9F1DA985BA8513962D9190
:1019F0003C9114978217930709F58C918F5F8C9314
:101A0000C801C016D10608F4C6012A960FB6F8948C
:101A1000DEBF0FBECDBFDF91CF911F910F91FF9021
:101A2000EF90DF90CF90BF90AF909F908F907F907E
:101A30006F905F904F903F902F900895B981BF5F56
:101A4000B98364E670E080E090E00E94D905898562
:101A50009A850E944B0BB8CE8FEF9FEFD6CFAF92F7
:101A6000BF92CF92DF92EF92FF920F931F93CF938B
:101A7000DF9300D0CDB7DEB7FC019B015A0187850B
:101A8000882301F18CE6898386858A83D12CC12C39
:101A9000F12CE12C8A0142E050E0BE016F5F7F4FE4
:101AA000848595850E94B30BC5010F900F90DF913F
:101AB000CF911F910F91FF90EF90DF90CF90BF904B
:101AC000AF900895B12CA12CEFCFCF92DF92EF927F
:101AD000FF920F931F936801790110E000E030E05E
:101AE00020E00E94B30B1F910F91FF90EF90DF90C9
:101AF000CF900895EF92FF920F931F93CF93DF93B0
:101B000000D01F92CDB7DEB7DC011F962C911F9736
:101B1000222301F17C01ED91FC910084F185E02DFF
:101B20000995892B11F58CE48983F70186858A83D1
:101B300001E010E09E012D5F3F4F42E050E0BE010A
:101B40006F5F7F4F848595850E94650D81E09B8145
:101B5000913009F080E00F900F900F90DF91CF91BE
:101B60001F910F91FF90EF90089581E0F4CFEF92D5
:101B7000FF920F931F93CF93DF9300D01F92CDB7A7
:101B8000DEB7FC012089211118C07C01118A8BE489
:101B9000898380E48B8386858A839F012E5E3F4FF5
:101BA00000E410E043E050E0BE016F5F7F4F8485AA
:101BB00095850E94650DF701808B0F900F900F9017
:101BC000DF91CF911F910F91FF90EF900895CF93E8
:101BD000DF93EC010E94B70D8889882341F0898941
:101BE000C80FD11D8A8990E0DF91CF9108958FEFC2
:101BF0009FEFFACFCF92DF92EF92FF920F931F9356
:101C0000CF93DF93EC016A017B0110E000E088894B
:101C1000811106C0CE010E94B70D8889882399F0F2
:101C2000E98981E08E0F898B0F5F1F4FEC0FFD2F2D
:101C3000F11D8289F70181937F0188898150888B0A
:101C40000C151D0520F3C801DF91CF911F910F9155
:101C5000FF90EF90DF90CF900895CF93DF93EC014A
:101C60000E94B70D8889882369F08150888B898903
:101C700091E0980F998BC80FD11D8A8990E0DF9170
:101C8000CF9108958FEF9FEFFACFCF93DF93EC01C1
:101C90000E94B70D888990E0DF91CF910895CF928F
:101CA000DF92EF92FF920F931F93D12CC12CF12C56
:101CB000E12C10E000E030E020E00E94B30B1F9127
:101CC0000F91FF90EF90DF90CF900895CF93DF9327
:101CD00000D01F92CDB7DEB7FC01278590E080E0F1
:101CE000222381F08CE6898386858A836B8343E097
:101CF00050E0BE016F5F7F4F848595850E944F0E37
:101D000081E090E00F900F900F90DF91CF910895B8
:101D10000F931F93CF93DF9300D0CDB7DEB78C0125
:101D2000FC018785882369F08AE6898386858A8312
:101D300042E050E0BE016F5F7F4F848595850E9431
:101D40004F0EF8011786108A118A0F900F90DF91BD
:101D5000CF911F910F9108958F929F92AF92BF9252
:101D6000EF92FF920F931F93CF93DF93CDB7DEB720
:101D7000A1970FB6F894DEBF0FBECDBF7C01FA016C
:101D8000CB0119A2223008F42AE08E010F5D1F4F0B
:101D9000822E912CB12CA12CBF01A50194010E948F
:101DA0002B22F901CA016A3074F5605DD8016E9387
:101DB0008D01232B242B252B79F790E080E01097C1
:101DC00089F0FD0101900020E9F73197AF014A1B2E
:101DD0005B0BD701ED91FC910280F381E02DB801FE
:101DE000C7010995A1960FB6F894DEBF0FBECDBF0F
:101DF000DF91CF911F910F91FF90EF90BF90AF9027
:101E00009F908F900895695CD1CF8F929F92AF92EF
:101E1000BF92CF92DF92EF92FF920F931F93CF93D7
:101E2000DF937C01EB016C0182E0C80ED11C4701FD
:101E3000E5E08E0E911C10E000E0F60141916F018B
:101E400050E070E060E02AE0CE010E94AC0E5C0140
:101E5000E881F9810190F081E02D6EE2CE010995D3
:101E60008A0D9B1D080F191FC814D90431F7F701FB
:101E7000458150E070E060E02AE0CE010E94AC0EA7
:101E8000800F911FDF91CF911F910F91FF90EF90E5
:101E9000DF90CF90BF90AF909F908F900895DC011E
:101EA00060E070E0CB01109709F40895FD01019006
:101EB0000020E9F73197EA1BFB0BB9F3BF01CD0115
:101EC0000895AF92BF92CF92DF92EF92FF920F935D
:101ED0001F93CF93DF9300D000D000D01F92CDB7D7
:101EE000DEB75C019B0183E489835A834B83FB014A
:101EF00001900020E9F731978F01061B170BCC24C6
:101F0000C394D12CCE0106967C0143E050E0BE0183
:101F10006F5F7F4FD5011C968D919C910E94B30BF2
:101F2000892BB9F18E81F501868793E69C838D8399
:101F300001E010E09E01295F3F4F42E050E0BE010A
:101F40006C5F7F4FD5011C968D919C910E94650D11
:101F50008F81882339F061E070E080E090E00E949A
:101F6000D905E6CF81E0F50187870190F081E02D6A
:101F70000688F789E02DC501099581111DC0D5019D
:101F8000ED91FC910488F589E02DC5010995F501D5
:101F9000168690E080E027960FB6F894DEBF0FBE5D
:101FA000CDBFDF91CF911F910F91FF90EF90DF9008
:101FB000CF90BF90AF90089581E090E0ECCF0F9369
:101FC0001F93CF93DF93EC012115310591F08881A8
:101FD0009981681B790B6217730790F08901BA0128
:101FE000A9010E944F2428813981200F311F398394
:101FF000288390E080E0DF91CF911F910F910895A9
:102000008FEF9FEFF8CFCF92DF92EF92FF920F9377
:102010001F93CF93DF93EC018B0169017A01A90132
:102020000E943908009771F49601A701B801CE010A
:10203000DF91CF911F910F91FF90EF90DF90CF90A4
:102040000C94DF0FDF91CF911F910F91FF90EF90D4
:10205000DF90CF9008953F924F925F926F927F9260
:102060008F929F92AF92BF92CF92DF92EF92FF92A8
:102070000F931F93CF93DF93CDB7DEB7E5970FB6DE
:10208000F894DEBF0FBECDBF96E0492E512C0E94C2
:10209000560281110E9449028091190390911A03FE
:1020A000909328038093270340911D0350911E03B2
:1020B00060911B0370911C03DC01ED91FC91008881
:1020C000F189E02D0995181619060CF78FE0ECE15F
:1020D000F1E0DE015F9601900D928A95E1F7809024
:1020E0001203909013033090140386E891E00E944D
:1020F0004F0F6F8F78A389A39AA38BE991E00E9479
:102100004F0F6EA37FA388A799A784EA91E00E944E
:102110004F0F6AA77BA78CA79DA7409115035091ED
:1021200016036091170370911803E0901F03F0905D
:1021300020039CA28BA23DA28FE0FE017F96DE01D0
:10214000509601900D928A95E1F7E0915203F0913B
:102150005303809150039091510309959401AEEE81
:10216000B2E00E943D21AB01BC0140933703509384
:1021700038036093390370933A03E0915203F0916E
:10218000530380914E0390914F03099510923B03A6
:10219000509258034092570300913C0310913D0325
:1021A000C0904003D09041038FE0FE017096DE01A5
:1021B000119601900D928A95E1F728893989AF88A7
:1021C000B88C6B8C7C8CDFA6CEA60C0D1D1D2E5FF3
:1021D0003F4F50E040E0265F3F4F4F4F5F4FE114CD
:1021E000F10461F0F7018081918167817085860F2C
:1021F000971F0496280F391F411D511DA114B104CA
:1022000079F0C5010296280F391F411D511D611437
:10221000710431F0C3010296280F391F411D511D71
:10222000C016D10609F47DC180E1D6018C938EA53C
:102230009FA501969FA78EA7B801CE018E960E94FA
:102240002C07009709F008C185EB91E00E944F0F21
:102250009B01AC01B801CE018E960E94031000973D
:1022600009F0FAC0EEA5FFA5E017F10709F459C17E
:1022700084E08083EEA5FFA59F012F5F3F4F3FA71E
:102280002EA7432D50E0440F551FE114F10489F0AF
:10229000D70114968C911497880F880F880F44608B
:1022A000842B8F7D16964C91B0E24B9FA001112498
:1022B000482BA114B10429F06114710409F0A6C0DF
:1022C00040682017310709F42CC141838EA59FA5D2
:1022D00001969FA78EA7A401B801CE018E960E94F9
:1022E0003908009709F0B8C029813A814B815C8197
:1022F000B801CE018E960E940310009709F0ACC081
:10230000E114F10409F084C0AB28D1F028853985A7
:102310004A855B85B801CE018E960E940310009716
:1023200009F09AC0672861F02C853D854E855F8550
:10233000B801CE018E960E940310009709F08CC060
:102340008EA59FA58C199D090E947C01009709F01C
:1023500083C01DAA1CAA42E050E070E060E0CE01FC
:10236000C4960E94A308009709F076C08CA99DA985
:10237000029709F0CFC000913E0310913F03E09116
:102380004203F0914303FBABEAAB0E0F1F1FE017B4
:10239000F10709F4C6C08191FBABEAAB807F8032C4
:1023A00009F0ACC0AE01425D5F4FB801CE01C296EC
:1023B0000E946C07009709F04FC08EA59FA5A8A9A1
:1023C000B9A90297A105B10509F095C0EAA9FBA931
:1023D000E017F10709F4A5C0CF0101969BAB8AABCA
:1023E0008017910709F49DC081813296FBABEAAB5F
:1023F000823009F46FC0A8F58823E1F1813009F437
:1024000062C0509258034092570338C0406C59CF75
:10241000F7012081318142815381B801CE018E962E
:102420000E9403100097C1F4D70117964D915C915B
:10243000B801CE018E960E943908009769F4F70121
:102440002781308541855285B801CE018E960E9444
:10245000DF0F009709F458CF90935A0380935903E4
:1024600056C0843009F440C0C0F1853051F685E093
:1024700090E02BC01092580310925703809157039D
:1024800090915803892BE9F510925A031092590341
:1024900081E080935603E5960FB6F894DEBF0FBE39
:1024A000CDBFDF91CF911F910F91FF90EF90DF9003
:1024B000CF90BF90AF909F908F907F906F905F90E4
:1024C0004F903F90089581E090E09093580380935F
:1024D0005703D4CF82E090E0F8CFA3E0B0E0B09310
:1024E0005803A0935703CACFE4E0F0E0F0935803F9
:1024F000E0935703C3CF88EF9FEFAECF87EF9FEFF7
:10250000ABCFA6EFBFEFB0935A03A09359030E943D
:102510004902BDCDE7EFFFEFF0935A03E093590373
:10252000F6CF8FEF9FEF98CF0F931F93CF93DF934B
:10253000EC0188819981009759F02A813B81261707
:10254000370730F081E0DF91CF911F910F9108950F
:102550008B016F5F7F4F0E947823009759F099831A
:1025600088831B830A832C813D81232B59F7FC012F
:102570001082E8CF80E0E7CFEF92FF920F931F9396
:10258000CF93DF936115710541F480E0DF91CF9126
:102590001F910F91FF90EF90089541155105B1F0F3
:1025A0007B01EC010C811D81040F151FB8010E94F5
:1025B0009412882351F3288139818C819D81B70140
:1025C000820F931F0E9458241D830C8381E0DECF6D
:1025D000CF93DF9300D0CDB7DEB72EE229831A82E6
:1025E00041E050E0BE016F5F7F4F0E94BC120F9030
:1025F0000F90DF91CF910895EF92FF920F931F9369
:10260000CF93DF9300D000D0CDB7DEB77C01862F0B
:102610004AE08E010F5F1F4FB80190E00E94011E3B
:10262000F80101900020E9F73197AF01401B510BF1
:10263000B801C7010E94BC120F900F900F900F902D
:10264000DF91CF911F910F91FF90EF900895EF923E
:10265000FF920F931F93CF93DF93EC01198218829F
:102660001B821A821D821C8261157105E1F08B01AB
:10267000FB0101900020E9F731977F01E61AF70A84
:10268000B7010E94941228813981811113C021154C
:10269000310519F0C9010E94EF22198218821D82AA
:1026A0001C821B821A82DF91CF911F910F91FF90A4
:1026B000EF900895FD82EC82B801C901DF91CF91BE
:1026C0001F910F91FF90EF900C9458244F925F92BE
:1026D0006F927F928F929F92AF92BF92CF92DF9232
:1026E000EF92FF920F931F93CF93DF93CDB7DEB797
:1026F00069970FB6F894DEBF0FBECDBF4B0129011D
:102700003A01AB8ABC8ACD8ADE8AEF8AF88E098FBD
:10271000CDB6DEB60E891F89A88CB98CC901019689
:102720002DB73EB7281B390B0FB6F8943EBF0FBE2E
:102730002DBF8DB79EB701967C01A201B3010E9407
:102740004F244E0C5F1CD2011C920115110521F083
:10275000F801EA0DFB1D1082D4011496ED91FC9155
:102760001597309739F19501A801B7018D919C918A
:1027700009950FB6F894DEBE0FBECDBE0FB6F89425
:10278000DEBE0FBECDBE69960FB6F894DEBF0FBE9B
:10279000CDBFDF91CF911F910F91FF90EF90DF9010
:1027A000CF90BF90AF909F908F907F906F905F90F1
:1027B0004F900895F40182819381892BD1F2B70162
:1027C000CE0107960E94271364EB71E0CE010D96AF
:1027D0000E94271301151105F9F0B801CE010196E9
:1027E0000E9427138D859E85009759F169817A8112
:1027F0006115710521F14F8558892D813E81421760
:102800005307E8F00E9458248D819E819A8B898B12
:1028100089819A810E94EF22D4011296ED91FC9158
:10282000BE01635F7F4FCE01079609958D859E851A
:102830000E94EF228F8198850E94EF229ACF0E94FA
:10284000EF2289819A819E878D878B819C81988BCD
:102850008F878D819E819A8B898B1A821982D8CF1E
:10286000CF92DF92EF92FF920F931F93CF93DF935C
:1028700000D000D000D0CDB7DEB77C018B016A015B
:1028800064EB71E0CE0101960E94271362E170E0D3
:10289000CE0101960E949412D80112966C91CE013D
:1028A00001960E94FC12CE0101960E94E812F801E6
:1028B0006381CE0101960E94FC12CE0101960E9416
:1028C000E812D80114966C91CE0101960E94FC1278
:1028D000CE0101960E94E812F8016581CE010196B1
:1028E0000E94FC1269817A81D701ED91FC910088E8
:1028F000F189E02DA601C70109958C0189819A8192
:102900000E94EF22C80126960FB6F894DEBF0FBED4
:10291000CDBFDF91CF911F910F91FF90EF90DF908E
:10292000CF9008951F920F920FB60F9211248F939C
:102930009F938091E1009091E100937F9093E1005B
:1029400083FF0FC01092E90091E09093EB0010928A
:10295000EC0092E39093ED0010920A0298E09093BD
:10296000F00082FF22C093E09093E9009091F20082
:10297000992319F09AE39093E8009091FB01992331
:1029800041F09091FB0191509093FB01911101C096
:102990005D9A90910902992341F09091090291501A
:1029A00090930902911101C0289A84FF18C0809168
:1029B000E2008E7E81608093E2008091E1008F7E54
:1029C0008093E1008091FC018E7E80618093FC0108
:1029D0009F918F910F900FBE0F901F90189580FFC1
:1029E000F7CF8091E2008E7E80618093E20080913B
:1029F000E1008E7E8093E1008091FC018E7E8160FB
:102A0000E5CF1F920F920FB60F921124CF92DF9253
:102A1000EF92FF920F931F932F933F934F935F93E8
:102A20006F937F938F939F93AF93BF93EF93FF9396
:102A3000CF93DF93CDB7DEB76C97DEBFCDBF1092DB
:102A4000E9008091E80083FF25C068E0CE0145964B
:102A50000E945E0482EF8093E8008D8987FF39C071
:102A60009091E80090FFFCCF982F907609F034C148
:102A70009E894F89588D2F89F88C911131C08038EB
:102A800061F58091FA018093F1001092F1008EEFD0
:102A90008093E8006C960FB6F894DEBF0FBECDBFF2
:102AA000DF91CF91FF91EF91BF91AF919F918F9166
:102AB0007F916F915F914F913F912F911F910F9156
:102AC000FF90EF90DF90CF900F900FBE0F901F9070
:102AD00018959EEF9093E800C7CF1092F100D5CFE4
:102AE000913059F48111D3CF4130510581F6809155
:102AF000FA018D7F8093FA01CACF933049F4811196
:102B0000C6CF4130510519F68091FA018260F2CFAB
:102B1000953041F48091E80080FFFCCF206820933D
:102B2000E300B5CF963009F0A9C00B8D1C8D22E0D3
:102B30001092E9001092F8011092F701F2122EC0E3
:102B40001092F6011092F5010E942D041F8299E067
:102B50009983FA8291E09E8390EA98879AEF998709
:102B60002091F7013091F801275F3F4F3C832B8381
:102B70008D831092E9001092F8011092F7011093E2
:102B8000F6010093F50149E050E0BE016F5F7F4F11
:102B900080E00E9407040E942D0479CF1093F60173
:102BA0000093F5010E941103DC0112960D911C9116
:102BB0000115110509F451C1D801ED91FC91048072
:102BC000F581E02DBE016B5E7F4FC801099500972E
:102BD00009F03EC1F80100851185EACFF3E0FF124C
:102BE0000EC08F89882309F440C0823061F440E828
:102BF0006BE088E292E00E94D403811148CF81E229
:102C00008093EB0047CF813029F440E86BE08CE102
:102C100092E0F1CF833099F70E941103DC01129604
:102C2000ED90FC908E010F5F1F4F6801E114F104DD
:102C300079F0D701ED91FC910680F781E02DB80184
:102C4000C7010995080F111DF701E084F184EECF4B
:102C5000D8011C92F60101900020E9F73197BF01DD
:102C60006C197D0940E0C601C6CF66E072E0FB0149
:102C7000449150E080E80E94070409CF973009F49E
:102C8000BECF983021F481E08093F10000CF9930DD
:102C900009F0FDCE837009F0B2CFE6E3F1E081E008
:102CA00031E096E32191222371F08093E900309383
:102CB000EB00DF0111972C912093EC009093ED0035
:102CC0008F5F873079F78EE78093EA001092EA00F1
:102CD0008F8980930A02DBCE8B8D9C8D1092E90048
:102CE0001092F8011092F7019093F6018093F5018C
:102CF000898D811192C08E899D89913A49F48132E2
:102D000009F07DCF47E050E06EE071E080E0B3CFA6
:102D1000913209F074CF833269F48F89988DB0E0D5
:102D2000A0E080930A0190930B01A0930C01B09353
:102D30000D01ADCE803269F48091E80082FFFCCFB6
:102D400067E08EE091E00E945E048BEF8093E800E4
:102D50009ECE823209F09BCE8F8980931501EEEFD3
:102D6000FFE7859194918B3F9C4D51F1E0E0F8E0B5
:102D700080910E0190910F01A0911001B09111016D
:102D8000803B9440A105B105F1F48091150180FDCF
:102D90001AC0EE3F8AE0F80789F587E797E7918345
:102DA0008083809160008093F90188E19BE00FB6F9
:102DB000F894A895809360000FBE9093600067CE52
:102DC000EEEFFAE0D5CF808191818737974709F000
:102DD0005ECEA895809160008861809360008091AC
:102DE000F90180936000EE3F2AE0F20789F08091BC
:102DF000FE0A9091FF0A9183808349CE8081918160
:102E00008737980751F29093FF0A8093FE0AC5CF47
:102E10001092FF0A1092FE0A3ACE0E941103DC01C2
:102E200012960D911C910115110509F4E8CED801F7
:102E3000ED91FC910190F081E02DBE016B5E7F4F22
:102E4000C8010995811123CEF80100851185EBCFCA
:102E5000181619060CF41BCED2CEF1E0FF12BECE2E
:102E60006AE072E004CF1F920F920FB60F92112406
:102E70002F933F934F935F936F937F938F939F9382
:102E8000AF93BF93EF93FF9387E692E00E942705ED
:102E9000FF91EF91BF91AF919F918F917F916F9132
:102EA0005F914F913F912F910F900FBE0F901F9008
:102EB00018951F920F920FB60F9211242F938F9394
:102EC0009F93EF93FF93E0917702F09178028081D6
:102ED000E0917D02F0917E0282FD1BC09081809185
:102EE00080028F5F8F7320918102821741F0E09101
:102EF0008002F0E0E959FD4F958F80938002FF91A9
:102F0000EF919F918F912F910F900FBE0F901F9077
:102F100018958081F4CF1F920F920FB60F92112453
:102F20002F933F938F939F93AF93BF938091D5013E
:102F30009091D601A091D701B091D8013091D401E0
:102F400023E0230F2D3758F50196A11DB11D2093C5
:102F5000D4018093D5019093D601A093D701B0936B
:102F6000D8018091D9019091DA01A091DB01B09153
:102F7000DC010196A11DB11D8093D9019093DA0166
:102F8000A093DB01B093DC01BF91AF919F918F9132
:102F90003F912F910F900FBE0F901F90189526E82C
:102FA000230F0296A11DB11DD2CF1F920F920FB613
:102FB0000F9211242F933F934F935F936F937F93BF
:102FC0008F939F93AF93BF93EF93FF93E09108018B
:102FD000F09109010995FF91EF91BF91AF919F91F8
:102FE0008F917F916F915F914F913F912F910F90B2
:102FF0000FBE0F901F9018951F920F920FB60F9251
:1030000011242F933F934F935F936F937F938F93ED
:103010009F93AF93BF93EF93FF93E0910601F091DD
:1030200007010995FF91EF91BF91AF919F918F910A
:103030007F916F915F914F913F912F910F900FBEB4
:103040000F901F9018951F920F920FB60F92112498
:103050002F933F934F935F936F937F938F939F93A0
:10306000AF93BF93EF93FF93E0910401F0910501BB
:103070000995FF91EF91BF91AF919F918F917F91B2
:103080006F915F914F913F912F910F900FBE0F90D5
:103090001F9018951F920F920FB60F9211242F9325
:1030A0003F934F935F936F937F938F939F93AF93D0
:1030B000BF93EF93FF93E0910201F0910301099513
:1030C000FF91EF91BF91AF919F918F917F916F9100
:1030D0005F914F913F912F910F900FBE0F901F90D6
:1030E00018951F920F920FB60F9211242F933F93B2
:1030F0004F935F936F937F938F939F93AF93BF9300
:10310000EF93FF93E0910001F09101010995FF9188
:10311000EF91BF91AF919F918F917F916F915F914F
:103120004F913F912F910F900FBE0F901F901895C8
:10313000CF93DF93EBE0F2E01382128248EE53E08C
:1031400060E070E0448355836683778380E491E098
:10315000918380838FEF9FEF95878487E7E6F2E086
:1031600013821282448355836683778382E591E0DC
:10317000918380838DEC90E0958784878CEC90E040
:103180009787868788EC90E0918B808B89EC90E024
:10319000938B828B8AEC90E0958B848B8EEC90E005
:1031A000978B868B118E128E138E148EABE5B2E048
:1031B00084E891E011969C938E9312961C9212973C
:1031C00013961C92139714961C92149715961C92A2
:1031D000A1E6B2E011969C938E9312961C921297E0
:1031E00013961C92139714961C92149715961C9282
:1031F000ABE5B3E01C921696FC93EE9315971796E9
:103200001C92179718961C9218971A96FC93EE9397
:103210001997E8EBF3E09183808312821382148282
:103220001582E6E6F3E013821282448355836683B7
:10323000778384E691E091838083B587A48716869F
:103240001786108ACCE0D3E08AE090E09F838E83DB
:1032500081E0888749875A876B877C871E861D8611
:10326000188A1F861A8A198A1C8A1B8A1E8A1D8A36
:10327000188E1F8A1A8E198E1C8E1B8E1D8E1E8E06
:103280001F8E18A21AA219A21BA21CA21DA21EA266
:1032900018A61FA2109256031092580310925703BB
:1032A00010925A0310925903E5E3F3E081E2DF0143
:1032B0001D928A95E9F780E890E09983888381E8F8
:1032C00090E00E9453229B838A8380E890E00E94D2
:1032D00053229D838C830E94900660930803709311
:1032E000090380930A0390930B030E949006609356
:1032F0000403709305038093060390930703DF9103
:10330000CF910895CF93DF93CDB7DEB7A2970FB6D5
:10331000F894DEBF0FBECDBF789484B5826084BDC3
:1033200084B5816084BD85B5826085BD85B58160C9
:1033300085BD80916E00816080936E001092810047
:103340008091810082608093810080918100816002
:1033500080938100809180008160809380008091C3
:1033600091008260809391008091910081608093B0
:103370009100809190008160809390008091C100C5
:1033800084608093C1008091C10082608093C100FD
:103390008091C10081608093C1008091C3008160F1
:1033A0008093C3008091C00082608093C0008091B0
:1033B000C20081608093C20080917A008460809313
:1033C0007A0080917A00826080937A0080917A00FE
:1033D000816080937A0080917A00806880937A007F
:1033E00010920A021092FA011092FC018091D7000B
:1033F00081608093D70080EA8093D80089B580618E
:1034000089BD89B5826089BD09B400FEFDCF61E048
:1034100070E080E090E00E94D9058091D8008F7C18
:1034200080618093D8008091E000807F8093E000ED
:103430008091E1008E7E8093E1008DE08093E20038
:10344000559A209AEEE6F2E02491EFE4F2E08491BE
:10345000882399F090E0880F991FFC01EA55FE4FF0
:10346000A591B491FC01EC5CFD4F859194918FB7CF
:10347000F894EC91E22BEC938FBFE0916403F09110
:103480006503A089B18982E08C93A485B5851C92DF
:10349000A685B78587E08C93108EA489B58986E0D0
:1034A0008C93A289B3898C9180618C93A289B38912
:1034B0008C9188608C93A289B3898C9180688C935D
:1034C0000288F389E02D80818F7D80838091620363
:1034D0008111B9C081E0809362038BE593E00E9483
:1034E0004B0B68EE73E080E090E00E94D90580917C
:1034F000600390916103DC01ED91FC910084F18502
:10350000E02D09951816190644F3FF24F39422E3DD
:10351000E22E85E0EBE2F1E0DE01559601900D929E
:103520008A95E1F7F092630345E050E0BE016B5EDF
:103530007F4F8BE593E00E944F0E80916003909146
:103540006103DC01ED91FC910190F081E02D63E0DD
:1035500009956AEF70E080E090E00E94D90562EC86
:1035600071E080916003909161030E9485046AEF8D
:1035700070E080E090E00E94D90560EC71E08091FD
:103580006003909161030E94850464EF71E080E024
:1035900090E00E94D90564EB71E080916003909106
:1035A00061030E94850464EF71E080E090E00E9476
:1035B000D9058BE593E00E944B0B85E0E0E3F1E059
:1035C000DE01119601900D928A95E1F7E092630376
:1035D00004E010E09E01255E3F4F45E050E0BE0153
:1035E0006F5F7F4F8BE593E00E94650D8F3F9807DB
:1035F00039F468EE73E080E090E00E94D90589CF4D
:103600002B8D2111FFCF049709F08BC22C8D2053F5
:10361000330B44E6429FC001439F900D11242D8D32
:10362000EAE02E9F800D911D1124805E91402E8D29
:103630002053330B820F931F90935D0380935C03A1
:1036400082E38093630380911B0390911C03009796
:1036500011F00E94EF228AEB91E00E9435249093B2
:103660001C0380931B038BE597E090931E038093CC
:103670001D0386E693E090931A03809319038091CB
:103680000C0390910D0320910E0330910F03409194
:1036900010035091110361E070E070933603609362
:1036A00035031092370310923803109239031092A9
:1036B0003A0310923B03509341034093400390938D
:1036C0003D0380933C033093430320934203909344
:1036D0003F0380933E0310924503109244031092DF
:1036E0004703109246031092490310924803109228
:1036F0004B0310924A0310924D0310924C0389E23F
:1037000093E090934F0380934E038FE293E0909366
:103710005103809350038BEE96E090935303809374
:1037200052038BE097E0909355038093540340E05D
:1037300050E0BA0189E293E00E94EB06E091520367
:10374000F091530340E050E0BA0180915003909112
:103750005103099587E293E09093490380934803CE
:1037600088ED9AE090934B0380934A038BE694E0B4
:1037700090934D0380934C0381E293E09093470331
:103780008093460386E693E1909345038093440338
:103790000E942B101092DD011092DE011092DF01C9
:1037A0001092E0011092E1011092E2011092E30107
:1037B0001092E4011092E5011092E6011092E701E7
:1037C0001092E8011092E9011092EA011092EB01C7
:1037D0001092EC011092ED011092EE011092EF01A7
:1037E0001092F0018CE996E090930301809302011E
:1037F000809169008C6080936900E99A80E0282EAE
:1038000080E0382E93EF892E99249A940E945602D4
:10381000882309F491C08091190390911A03DC0167
:10382000ED91FC910084F185E02D09958C01892BA7
:1038300009F140911503509116036091170370919F
:103840001803E0915203F09153038091500390913B
:10385000510309951A82198250E040E0B801CE0167
:1038600001960E94A308009709F067C110925A03BD
:10387000109259034091150350911603609117035C
:1038800070911803E0915203F0915303809150031B
:103890009091510309958091370390913803A0913D
:1038A0003903B0913A03892B8A2B8B2B09F440C042
:1038B000E0915403F091550380914E0390914F0392
:1038C0000995161617061806190694F180913B0300
:1038D00081112AC160913C0370913D030091400326
:1038E000109141031A830983600F711F60177107DC
:1038F00009F421C120ECF801208389819A81019685
:103900009A83898320E030E0A901CE0101960E94CC
:103910002C07009709F011C189819A81801B910BB6
:103920000E947C01009709F008C131E030933B030D
:1039300010925A03109259030E945602811102C03C
:103940000E942B108091F1019091F2012091F301DE
:103950003091F4012817390709F4D7C09093F40186
:103960008093F3010DED11E0C12CD12C7601D8012B
:103970006D917D918D919D918D010E946D209B0196
:10398000AC01C701B6010E944D216B017C01B1E081
:10399000013F1B0761F76BEC71E0CE014B960E9473
:1039A000271364EB71E0CE0145960E94271320E0B7
:1039B00030E040EA50E4C701B6010E94B9219B0102
:1039C000AC0160E070E68AE697E40E94B9218E01BE
:1039D0000F5F1F4F22E044E00E94E31DFC010190B5
:1039E0000020E9F73197AF01481B590BBC01CE010C
:1039F00045960E94BC1281E00E946A02AD88BE8892
:103A00000B8D1C8DF50101900020E9F731979F0186
:103A10002A193B093AA329A30E945602882309F4D4
:103A200063C0C0901503D0901603E0901703F09088
:103A30001803C8010E944F0F2B013C01E091520373
:103A4000F0915303B701A601809150039091510367
:103A5000099500913C0310913D03C0904003D09024
:103A60004103DA82C9820C0D1D1DC201029669A1B3
:103A70007AA19B0150E040E0280F391F411D511DE4
:103A80000C151D0509F45EC0E0E3D601EC938981B5
:103A90009A8101969A838983B801CE0101960E948A
:103AA0002C07009709F050C0A3019201B801CE0184
:103AB00001960E940310009709F046C029A13AA17F
:103AC000A501B801CE0101960E94DF0F0097E1F534
:103AD00089819A818C199D090E947C010097A1F52A
:103AE00010925A031092590364E670E080E090E06F
:103AF0000E94D90580E00E946A028D899E890E94F9
:103B0000EF228B8D9C8D0E94EF222114310409F449
:103B10007DCE0E941305882309F478CE0E94000010
:103B200075CE84E690E088CD90925A038092590336
:103B30000E94490201CF8FEF9FEF90935A03809329
:103B40005903F6CF8FEF9FEF90935A038093590359
:103B50000E944902C9CFE0911F03F09120033097E2
:103B6000F1F087819085892B21F0818592850E94D3
:103B7000EF22E0911F03F091200380819181892B36
:103B800021F0828193810E94EF2280911F03909106
:103B900020030E94EF221092200310921F038091B5
:103BA0001B0390911C03009711F00E94EF2280915B
:103BB0000E0390910F030E94EF22809110039091C9
:103BC00011030C94EF22EF920F931F93CF93DF9387
:103BD000E80134E047FD34E1042E000C550B57FF9B
:103BE00003C0519541955109E32E022F242FAE01B8
:103BF0000E94261ECE01DF91CF911F910F91EF9071
:103C00000895BB274A3031F4992322F4BDE2909500
:103C100081959F4F0C940D1EBB27FB015527AA27AA
:103C2000880F991FAA1FA41710F0A41B8395505149
:103C3000B9F7A05DAA3308F0A95DA193009779F7C1
:103C4000B111B1931192CB010C945D20A9E0B0E0C9
:103C5000ECE2FEE10C940C216A01F22EB02E102F42
:103C6000FBE3AF2EA01608F41BE31F5F012F27E034
:103C7000AE014F5F5F4F0E94851FBC018981982F65
:103C80009970913009F43FC09BE2E1FC04C09E2D85
:103C90009170E0FC3AC05E2D5071E82FE87083FF10
:103CA00046C084E0911101C083E0EF2DE81B8F1521
:103CB00008F0E0E0D6018E2F20E2552351F1992340
:103CC00029F0D6019C93C60101966C0196012D5FE7
:103CD0003F4FE2FE24C08EE4D6018C9391E411960E
:103CE0009C93119712968C93D9018E2F90E281119B
:103CF0001BC0E20FF32FF11D10828EEF9FEF29966C
:103D0000ECE00C9428219DE2C6CF90E2C4CF2D9325
:103D100081508111FCCFCE0ED11CE0E0D0CF8EE6D9
:103D2000D6018C9391E6DBCF9D938150E0CF482F55
:103D3000447082FF3DC084E0911101C083E08F1583
:103D400010F4EF2DE81BD6018E2F20E2552309F148
:103D5000992329F0D6019C93C60101966C01960126
:103D60002D5F3F4FE2FE1BC089E4D6018C938EE4A9
:103D700011968C93119786E412968C93D9018E2F0D
:103D800090E2882309F4B5CF9D938150FACF2D930B
:103D900081508111FCCFCE0ED11CE0E0D9CF89E655
:103DA000D6018C938EE611968C93119786E6E4CF1C
:103DB0009B0177FF02C030E020E0A1E0B0E091116C
:103DC00002C0B0E0A0E0F9013196AE0FBF1F8B2C0E
:103DD000912CBB2009F461C05401EFEFAE1ABE0A6A
:103DE000AA0DBB1DFA161B0619F014F04F2D4A1B25
:103DF000511188C0E3FC59C07601A42FB0E2A11193
:103E00004FC0C40ED11C992309F45BC040E0D60119
:103E10001196F60190836D01552309F448C0012FD6
:103E2000060F9A81582F507184FF03C0913309F413
:103E3000015010160CF047C0093008F008E0EEE21F
:103E4000FE2E5B01A01AB10885019194819491081E
:103E50002F3F320729F4D601FC92F60131966F010B
:103E60006217730794F1021713077CF5DB01A21B9D
:103E7000B30BAA24A394B12CAC0EBD1EAA0DBB1D7E
:103E800011968C9121503109D601119628153905CA
:103E9000F4F0F60180836D01DBCFB12CA12CA0CF13
:103EA000F701B1937F01A150AACF9111B0CFD601F4
:103EB000942F50E302C05D9391509111FCCFC40E3A
:103EC000D11C40E0ACCF01E0BACF80E3DBCF62177A
:103ED000730731F4963388F4953311F4552369F060
:103EE000F6018083FD01842F90E2811108C0A40FA8
:103EF000B11D1C9290E080E002CF81E3F1CF91935D
:103F00008150F3CF911183CF8ACF283008F027E07A
:103F10003327DA01990F311D87FD91600096610505
:103F2000710539F432602E5F3D9330E32A95E1F755
:103F300008959F3F30F080387105610509F03C5FBE
:103F40003C5F3D93913008F08068911DDF93CF93E3
:103F50001F930F93FF92EF92192F987F9695E92F59
:103F600096959695E90FFF27EA5FFE4F992733272D
:103F7000EE24FF24A701E70105900894079428F494
:103F8000360FE71EF81E491F511D660F771F881F49
:103F9000991F0694A1F70590079428F4E70EF81EE0
:103FA000491F561FC11D770F881F991F661F069452
:103FB000A1F70590079428F4F80E491F561FC71F54
:103FC000D11D880F991F661F771F0694A1F70590D2
:103FD000079420F4490F561FC71FD81F990F661F5B
:103FE000771F881F0694A9F784911095177041F0E8
:103FF000D695C79557954795F794E7941A95C1F7C5
:10400000ECEAF0E0689415901591359165919591E1
:1040100005907FE27395E118F10A430B560BC90B2B
:10402000D009C0F7E10CF11E431F561FC91FD01D58
:104030007EF4703311F48A95E6CFE894015030F0A5
:10404000080F0AF40027021708F4202F2395022FE7
:104050007A3328F079E37D932A95E9F710C07D93B0
:104060002A9589F60694979567953795179517942D
:10407000E118F10A430B560BC90BD00998F02395B0
:104080007E9173957A3308F070E37C932013B8F730
:104090007E9170617D9330F0839571E37D9370E341
:1040A0002A95E1F71124EF90FF900F911F91CF9186
:1040B000DF91992787FD90950895DC01FC01672F1A
:1040C00071917723E1F7329704C07C916D937083EF
:1040D0006291AE17BF07C8F30895E89409C097FB33
:1040E0003EF490958095709561957F4F8F4F9F4FCF
:1040F0009923A9F0F92F96E9BB279395F695879513
:1041000077956795B795F111F8CFFAF4BB0F11F4D5
:1041100060FF1BC06F5F7F4F8F4F9F4F16C088237C
:1041200011F096E911C0772321F09EE8872F762FB2
:1041300005C0662371F096E8862F70E060E02AF0F3
:104140009A95660F771F881FDAF7880F96958795DF
:1041500097F9089597F99F6780E870E060E0089507
:104160009FEF80EC089500240A941616170618068F
:104170000906089500240A9412161306140605066B
:104180000895092E0394000C11F4882352F0BB0FFC
:1041900040F4BF2B11F460FF04C06F5F7F4F8F4F5F
:1041A0009F4F089557FD9058440F551F59F05F3F9A
:1041B00071F04795880F97FB991F61F09F3F79F049
:1041C00087950895121613061406551FF2CF4695CB
:1041D000F1DF08C0161617061806991FF1CF86954D
:1041E0007105610508940895E894BB276627772731
:1041F000CB0197F908950E943D21A59F900DB49F92
:10420000900DA49F800D911D112408952F923F922F
:104210004F925F926F927F928F929F92AF92BF92D6
:10422000CF92DF92EF92FF920F931F93CF93DF9382
:10423000CDB7DEB7CA1BDB0B0FB6F894DEBF0FBEDF
:10424000CDBF09942A88398848885F846E847D842C
:104250008C849B84AA84B984C884DF80EE80FD802E
:104260000C811B81AA81B981CE0FD11D0FB6F894A4
:10427000DEBF0FBECDBFED010895A29FB001B39F79
:10428000C001A39F700D811D1124911DB29F700D5F
:10429000811D1124911D08955058BB27AA270E9403
:1042A00064210C94C1200E94B32038F00E94BA20EF
:1042B00020F039F49F3F19F426F40C94B0200EF44A
:1042C000E095E7FB0C94AA20E92F0E94D22058F336
:1042D000BA17620773078407950720F079F4A6F5EB
:1042E0000C94F4200EF4E0950B2EBA2FA02D0B01A8
:1042F000B90190010C01CA01A0011124FF27591B2B
:1043000099F0593F50F4503E68F11A16F040A22F30
:10431000232F342F4427585FF3CF469537952795A1
:10432000A795F0405395C9F77EF41F16BA0B620BA0
:10433000730B840BBAF09150A1F0FF0FBB1F661FE7
:10434000771F881FC2F70EC0BA0F621F731F841F2A
:1043500048F4879577956795B795F7959E3F08F050
:10436000B0CF9395880F08F09927EE0F9795879512
:1043700008950E94CD210C94C1200E94BA2058F0CB
:104380000E94B32040F029F45F3F29F00C94AA204A
:1043900051110C94F5200C94B0200E94D22068F3A7
:1043A0009923B1F3552391F3951B550BBB27AA27EE
:1043B00062177307840738F09F5F5F4F220F331F28
:1043C000441FAA1FA9F335D00E2E3AF0E0E832D0F0
:1043D00091505040E695001CCAF72BD0FE2F29D0F3
:1043E000660F771F881FBB1F261737074807AB07C5
:1043F000B0E809F0BB0B802DBF01FF2793585F4F3A
:104400003AF09E3F510578F00C94AA200C94F520C8
:104410005F3FE4F3983ED4F3869577956795B7951B
:10442000F7959F5FC9F7880F911D9695879597F926
:104430000895E1E0660F771F881FBB1F621773079F
:104440008407BA0720F0621B730B840BBA0BEE1FB4
:1044500088F7E0950895A1E21A2EAA1BBB1BFD0167
:104460000DC0AA1FBB1FEE1FFF1FA217B307E40753
:10447000F50720F0A21BB30BE40BF50B661F771FAB
:10448000881F991F1A9469F760957095809590958B
:104490009B01AC01BD01CF010895EE0FFF1F0590F8
:1044A000F491E02D09940F931F93CF93DF93823003
:1044B000910510F482E090E0E091C003F091C10317
:1044C00030E020E0B0E0A0E0309799F4211531050C
:1044D00009F44AC0281B390B24303105D8F58A81EC
:1044E0009B816115710589F1FB0193838283FE0134
:1044F00011C0408151810281138148175907E0F0B2
:104500004817590799F4109761F012960C93129777
:1045100013961C933296CF01DF91CF911F910F918B
:1045200008950093C0031093C103F4CF2115310502
:1045300051F04217530738F0A901DB019A01BD0180
:10454000DF01F801C1CFEF01F9CF9093C103809350
:10455000C003CDCFFE01E20FF31F81939193225050
:10456000310939832883D7CF2091BE033091BF030F
:10457000232B41F420911801309119013093BF038E
:104580002093BE03209116013091170121153105AA
:1045900041F42DB73EB740911A0150911B01241BE5
:1045A000350BE091BE03F091BF03E217F307A0F4CF
:1045B0002E1B3F0B2817390778F0AC014E5F5F4F79
:1045C0002417350748F04E0F5F1F5093BF034093E9
:1045D000BE03819391939FCFF0E0E0E09CCFCF9317
:1045E000DF930097E9F0FC01329713821282A091C9
:1045F000C003B091C103ED0130E020E01097A1F4B9
:1046000020813181820F931F2091BE033091BF031F
:104610002817390709F061C0F093BF03E093BE0388
:10462000DF91CF910895EA01CE17DF07E8F54A81BF
:104630005B819E0141155105B1F7E901FB83EA83D6
:1046400049915991C40FD51FEC17FD0761F4808182
:1046500091810296840F951FE90199838883828155
:1046600093819B838A83F0E0E0E012968D919C9188
:1046700013970097B9F52D913C911197CD010296B2
:10468000820F931F2091BE033091BF032817390773
:1046900039F6309751F51092C1031092C003B093D0
:1046A000BF03A093BE03BCCFD383C283408151819B
:1046B000840F951FC817D90761F44E5F5F4F88813B
:1046C0009981480F591F518340838A819B8193832D
:1046D00082832115310509F0B0CFF093C103E09337
:1046E000C0039ECFFD01DC01C0CF13821282D7CF61
:1046F000B0E0A0E0EEE7F3E20C9408218C01009713
:1047000051F4CB010E9453228C01C801CDB7DEB712
:10471000E0E10C942421FC01E60FF71F9C012250DC
:104720003109E217F30708F49DC0D901CD91DC915E
:104730001197C617D70798F0C530D10530F3CE01D1
:1047400004978617970708F3C61BD70B2297C193C8
:10475000D1936D937C93CF010E94EF22D6CF5B0162
:10476000AC1ABD0A4C018C0E9D1EA091C003B091E5
:10477000C103512C412CF12CE12C109731F5809183
:10478000BE039091BF038815990509F05CC04616D9
:10479000570608F058C080911601909117010097B4
:1047A00041F48DB79EB740911A0150911B01841BB3
:1047B000950BE817F90708F055C0F093BF03E09395
:1047C000BE03F90171836083A0CF8D919C911197F5
:1047D00012966C90129713967C901397A815B905B2
:1047E00059F56C0142E0C40ED11CCA14DB0420F15F
:1047F000AC014A195B09DA011296159780F06282C2
:10480000738251834083D9016D937C93E114F10449
:1048100071F0D7011396FC93EE93129776CF229600
:104820008C0F9D1FF90191838083F301EFCFF093EB
:10483000C103E093C00369CF4816590608F42C0160
:104840007D01D3019ACFCB010E9453227C010097B6
:1048500049F0AE01B8010E944F24C8010E94EF2226
:10486000870153CF10E000E050CF0F931F93CF93F9
:10487000DF938C01FC0101900020E9F7CF01801B40
:10488000910B0E945322EC01009719F0B8010E948D
:104890005824CE01DF91CF911F910F910895FB0114
:1048A000DC0102C001900D9241505040D8F70895AC
:1048B000FB01DC0101900D920020E1F7089511E069
:1048C000C1E5D1E004C0FE010E944D222196C2350F
:0848D000D107C9F7F894FFCFEE
:1048D8002B072B072B072B072B07FFFFFFFF00E1F9
:1048E8000000000000000000C2038000000000007B
:1048F8003C000100000000000000005858585858BB
:10490800585831303000C18081000000000000009C
:1049180025030B0646033B038C034A036803000088
:1049280000004805A904D60494050705E504F90420
:1049380000000000660E2F0D480B3B0B450E2D0E98
:10494800E70D3014610FFA0D880E7A0D450B3C0BFC
:1049580000000000050F61726475696E6F2D79752E
:104968006E2D76697A696E76697A00656366393282
:104978003966650066363562646531396438653490
:1049880036643637004D5154540062726F6B65724D
:104998002E7368696674722E696F002F7261746570
:0249A80000000D
:00000001FF
